:020000040800F2
:1000000000000520555B00080D4F0008154F000843
:100010001D4F0008254F00082D4F0008000000006C
:10002000000000000000000000000000354F000844
:10003000434F000800000000514F00085F4F0008C8
:10004000A55B0008A55B0008A55B0008A55B000890
:10005000A55B0008A55B0008A55B0008A55B000880
:10006000A55B0008A55B0008A55B0008A55B000870
:10007000A55B0008A55B0008A55B0008A55B000860
:10008000A55B0008A55B0008A55B0008A55B000850
:10009000A55B0008A55B0008A55B0008A55B000840
:1000A000A55B0008A55B0008A55B0008A55B000830
:1000B000A55B0008A55B0008A55B0008A55B000820
:1000C000A55B0008A55B0008A55B0008A55B000810
:1000D000A55B00086D4F0008814F0008A55B000874
:1000E000A55B0008A55B0008A55B0008A55B0008F0
:1000F000A55B0008A55B0008A55B0008A55B0008E0
:10010000A55B0008A55B0008954F0008A55B0008EB
:10011000A55B0008A55B0008A55B0008A55B0008BF
:10012000A55B0008A55B0008A55B0008A55B0008AF
:10013000A55B0008A55B0008A55B0008A55B00089F
:10014000A55B0008A55B0008A55B0008A94F000897
:10015000A55B0008A55B0008A55B0008A55B00087F
:10016000A55B0008A55B0008A55B0008A55B00086F
:10017000A55B0008A55B0008A55B00080000000067
:10018000A55B0008A55B0008A55B0008A55B00084F
:10019000A55B0008A55B0008A55B0008A55B00083F
:0C01A000A55B0008A55B00080000000043
:1001B00010B5054C237833B9044B13B10448AFF3A1
:1001C00000800123237010BDD80100200000000032
:1001D0006078010808B5034B1BB103490348AFF32E
:1001E000008008BD00000000DC01002060780108EC
:1001F00070B54FF0FF0C4CF4E06C1CEA11541DBFBD
:100200001CEA135594EA0C0F95EA0C0F00F0DEF887
:100210002C4481EA030621EA4C5123EA4C5350EA6C
:10022000013518BF52EA033541F4801143F48013BD
:1002300038D0A0FB02CE4FF00005E1FB02E506F04E
:100240000042E0FB03E54FF00006E1FB03569CF0A3
:10025000000F18BF4EF0010EA4F1FF04B6F5007FA9
:1002600064F5407404D25FEA4E0E6D4146EB06061B
:1002700042EAC62141EA55514FEAC52040EA5E50A4
:100280004FEACE2EB4F1FD0C88BFBCF5E06F1ED84E
:10029000BEF1004F08BF5FEA500E50F1000041EB85
:1002A000045170BD06F0004646EA010140EA020032
:1002B00081EA0301B4EB5C04C2BFD4EB0C0541EA54
:1002C000045170BD41F480114FF0000E013C00F369
:1002D000AB8014F1360FDEBF002001F0004170BD8D
:1002E000C4F10004203C35DA0C341BDC04F11404A6
:1002F000C4F1200500FA05F320FA04F001FA05F232
:1003000040EA020001F0004221F0004110EBD370FE
:1003100021FA04F642EB06015EEA430E08BF20EA2A
:10032000D37070BDC4F10C04C4F1200500FA04F3CD
:1003300020FA05F001FA04F240EA020001F000415F
:1003400010EBD37041F100015EEA430E08BF20EAD2
:10035000D37070BDC4F1200500FA05F24EEA020E1A
:1003600020FA04F301FA05F243EA020321FA04F049
:1003700001F0004121FA04F220EA020000EBD37000
:100380005EEA430E08BF20EAD37070BD94F0000F00
:100390000FD101F00046400041EB010111F4801F34
:1003A00008BF013CF7D041EA060195F0000F18BFE5
:1003B000704703F00046520043EB030313F4801F21
:1003C00008BF013DF7D043EA0603704794EA0C0FDB
:1003D0000CEA135518BF95EA0C0F0CD050EA4106F1
:1003E00018BF52EA4306D1D181EA030101F000416E
:1003F0004FF0000070BD50EA410606BF1046194696
:1004000052EA430619D094EA0C0F02D150EA0136A1
:1004100013D195EA0C0F05D152EA03361CBF1046E2
:1004200019460AD181EA030101F0004141F0FE4181
:1004300041F470014FF0000070BD41F0FE4141F405
:10044000780170BD81F0004102E000BF83F00043FD
:1004500030B54FEA41044FEA430594EA050F08BF5F
:1004600090EA020F1FBF54EA000C55EA020C7FEA23
:10047000645C7FEA655C00F0E2804FEA5454D4EBA0
:100480005555B8BF6D420CDD2C4480EA020281EA6A
:10049000030382EA000083EA010180EA020281EAA2
:1004A0000303362D88BF30BD11F0004F4FEA0131F4
:1004B0004FF4801C4CEA113102D0404261EB410103
:1004C00013F0004F4FEA03334CEA133302D0524289
:1004D00063EB430394EA050F00F0A780A4F1010445
:1004E000D5F1200E0DDB02FA0EFC22FA05F280187F
:1004F00041F1000103FA0EF2801843FA05F3594165
:100500000EE0A5F120050EF1200E012A03FA0EFCE3
:1005100028BF4CF0020C43FA05F3C01851EBE3710D
:1005200001F0004507D54FF0000EDCF1000C7EEB2A
:1005300000006EEB0101B1F5801F1BD3B1F5001F68
:100540000CD349085FEA30004FEA3C0C04F1010487
:100550004FEA445212F5800F80F09A80BCF1004FB0
:1005600008BF5FEA500C50F1000041EB045141EA32
:10057000050130BD5FEA4C0C404141EB0101013CFB
:1005800028BFB1F5801FE9D291F0000F04BF0146EA
:100590000020B1FA81F308BF2033A3F10B03B3F1BC
:1005A00020020CDA0C3208DD02F1140CC2F10C024C
:1005B00001FA0CF021FA02F10CE002F11402D8BFAA
:1005C000C2F1200C01FA02F120FA0CFCDCBF41EA76
:1005D0000C019040E41AA2BF01EB0451294330BD45
:1005E0006FEA04041F3C1CDA0C340EDC04F1140422
:1005F000C4F1200220FA04F001FA02F340EA0300F9
:1006000021FA04F345EA030130BDC4F10C04C4F13E
:10061000200220FA02F001FA04F340EA030029461E
:1006200030BD21FA04F0294630BD94F0000F83F468
:10063000801306BF81F480110134013D4EE77FEA4B
:10064000645C18BF7FEA655C29D094EA050F08BF97
:1006500090EA020F05D054EA000C04BF1946104678
:1006600030BD91EA030F1EBF0021002030BD5FEABC
:10067000545C05D14000494128BF41F0004130BDE4
:1006800014F580043CBF01F5801130BD01F0004538
:1006900045F0FE4141F470014FF0000030BD7FEAAB
:1006A000645C1ABF194610467FEA655C1CBF0B46A6
:1006B000024650EA013406BF52EA033591EA030FBD
:1006C00041F4002130BD00BF90F0000F04BF0021B5
:1006D000704730B54FF4806404F132044FF00005E8
:1006E0004FF0000150E700BF90F0000F04BF002161
:1006F000704730B54FF4806404F1320410F00045C7
:1007000048BF40424FF000013EE700BF42004FEAC1
:10071000E2014FEA31014FEA02701FBF12F07F433E
:1007200093F07F4F81F06051704732F07F4208BFF5
:10073000704793F07F4F04BF41F40021704730B5FC
:100740004FF4607401F0004521F000411CE700BF48
:1007500050EA010208BF704730B54FF000050AE0CB
:1007600050EA010208BF704730B511F0004502D5CC
:10077000404261EB41014FF4806404F132045FEACE
:10078000915C3FF4D8AE4FF003025FEADC0C18BF77
:1007900003325FEADC0C18BF033202EBDC02C2F169
:1007A000200300FA03FC20FA02F001FA03FE40EAFB
:1007B0000E0021FA02F11444BDE600BF4FF0FF3CE9
:1007C00006E000BF4FF0010C02E000BF4FF0010C4B
:1007D0004DF804CD4FEA410C7FEA6C5C4FEA430CC4
:1007E00018BF7FEA6C5C1BD001B050EA410C0CBF13
:1007F00052EA430C91EA030F02BF90EA020F002075
:10080000704710F1000F91EA030F58BF994208BFDB
:1008100090422CBFD8176FEAE37040F00100704798
:100820004FEA410C7FEA6C5C02D150EA013C07D1EF
:100830004FEA430C7FEA6C5CD6D152EA033CD3D03A
:100840005DF8040B704700BF8446104662468C4634
:100850001946634600E000BF01B5FFF7B7FF002867
:1008600048BF10F1000F01BD4DF808EDFFF7F4FF90
:100870000CBF012000205DF808FB00BF4DF808ED1B
:10088000FFF7EAFF34BF012000205DF808FB00BF3E
:100890004DF808EDFFF7E0FF94BF012000205DF860
:1008A00008FB00BF4DF808EDFFF7CEFF94BF012015
:1008B00000205DF808FB00BF4DF808EDFFF7C4FF0E
:1008C00034BF012000205DF808FB00BF4FEA410261
:1008D000B2F1E04324BFB3F5001CDCF1FE5C0DD99E
:1008E00001F0004C4FEAC0024CEA5070B2F1004FE8
:1008F00040EB830008BF20F00100704711F0804FEB
:1009000021D113F13872BCBF01F00040704741F4AF
:1009100080114FEA5252C2F11802C2F1200C10FAB3
:100920000CF320FA02F018BF40F001004FEAC12397
:100930004FEAD32303FA0CFC40EA0C0023FA02F33B
:100940004FEA4303CCE77FEA625307D150EA013311
:100950001EBF4FF0FE4040F44000704701F00040E1
:1009600040F0FE4040F40000704700BF53B94AB960
:10097000002908BF00281CBF4FF0FF314FF0FF30A7
:1009800000F088B9ADF1080C6DE904CE00F006F86E
:10099000DDF804E0DDE9022304B070472DE9F047FB
:1009A000089D8E4604468846002B4AD18A42174647
:1009B00062D9B2FA82F64EB1C6F1200301FA06F806
:1009C00020FA03F3B74043EA0808B4404FEA174E51
:1009D0001FFA87FCB8FBFEF1230C0EFB118843EADB
:1009E000084301FB0CF29A4209D9FB1801F1FF30D0
:1009F00080F0EA809A4240F2E78002393B449A1A3A
:100A0000A3B2B2FBFEF00EFB102243EA024300FB4E
:100A10000CFC9C4509D9FB1800F1FF3280F0D68010
:100A20009C4540F2D3803B44023840EA0140A3EBAE
:100A30000C0300211DB1F3400022C5E90032BDE8DE
:100A4000F0878B4205D90DB1C5E9000100210846A8
:100A5000F5E7B3FA83F1002946D1734502D3824208
:100A600000F20581841A6EEB030201209046002DEE
:100A7000E5D0C5E90048E2E7002A00F09080B2FA2C
:100A800082F6002E40F0A4808A1A030C4FEA174E1B
:100A900080B2BCB20121B2FBFEFC0EFB1C2243EA79
:100AA000024304FB0CF29A4207D9FB180CF1FF3801
:100AB00002D29A4200F2E080C4469B1AB3FBFEF2D7
:100AC0000EFB123340EA034302FB04F49C4207D9B5
:100AD000FB1802F1FF3002D29C4200F2CA800246AB
:100AE0001B1B42EA0C40A5E7C1F120068B4022FA0D
:100AF00006F71F430EFA01F420FA06F32EFA06FE5B
:100B00004FEA1749234300FA01F81FFA87FCBEFB9E
:100B1000F9F01C0C09FB10EE44EA0E4400FB0CFE3D
:100B2000A64502FA01F209D93C1900F1FF3A80F01A
:100B30009C80A64540F2998002383C44A4EB0E0408
:100B40001FFA83FEB4FBF9F309FB13444EEA044495
:100B500003FB0CFCA44508D93C1903F1FF3E80F0CF
:100B60008280A4457FD9023B3C4443EA0040A4EB89
:100B70000C04A0FB02EC64457346E14662D35FD0EF
:100B80005DB1B8EB030264EB090404FA06F622FA3D
:100B900001F31E43CC40C5E9006400214FE7B1FBDF
:100BA000F2FC010C41EA0E4180B240EA01423B46B0
:100BB00038463C46B846BE462026B1FBF7F1A2EBCC
:100BC000080241EA0C4166E7014618E710462CE7A7
:100BD000C6F120022EFA02F3B740B14020FA02F229
:100BE0004FEA174E0A43B3FBFEF8BCB20EFB1833B4
:100BF000110C41EA034108FB04F9B04089454FEA72
:100C0000104380B23ED9791808F1FF3C01D28945E2
:100C10001FD8A1EB0901B1FBFEF909FB04F80EFB9B
:100C2000191192B242EA0142424529D2BA1809F199
:100C3000FF31C4D24245C2D2A9F102013A44BEE713
:100C4000F0459DD2BEEB02036CEB070C0138E14688
:100C500096E7A7EB09094944A8F1020CB1FBFEF99C
:100C600009FB04F8DBE773467FE7504666E7084672
:100C7000FDE63B44023A33E7ACF1020C3B441CE78F
:100C800049469CE7A1EB0901C446B1FBFEF909FB0B
:100C900004F8C4E7704700BF80B582B000AF0346D8
:100CA000FB800B46BB8013467B807B8803F00F03E1
:100CB000D9B2734A537861F303035370BB8803F0CE
:100CC0000F03D9B26E4A137861F307131370FB88D0
:100CD00003F00F03D9B26A4A137861F30303137068
:100CE000674B1B78C3F30303DBB203F00103DBB2F2
:100CF0001A468021634808F039FD614B1B78C3F325
:100D00000303DBB25B1003F00103DBB21A464FF4BE
:100D100080715C4808F02AFD594B1B78C3F303032C
:100D2000DBB29B1003F00103DBB21A464FF40071F3
:100D3000544808F01BFD524B1B78C3F30303DBB28E
:100D4000DB1003F00103DBB21A464FF480614D481B
:100D500008F00CFD002204214B4808F007FD00229A
:100D600080214A4808F002FD454B1B78C3F303136A
:100D7000DBB203F00103DBB21A464FF400614148D5
:100D800008F0F4FC3E4B1B78C3F30313DBB25B109B
:100D900003F00103DBB21A464FF48051394808F0E2
:100DA000E5FC374B1B78C3F30313DBB29B1003F056
:100DB0000103DBB21A464FF40051324808F0D6FC6A
:100DC0002F4B1B78C3F30313DBB2DB1003F00103DB
:100DD000DBB21A464FF480412A4808F0C7FC0022D3
:100DE0000221294808F0C2FC00224FF480712748F4
:100DF00008F0BCFC224B5B78C3F30303DBB203F0C7
:100E00000103DBB21A464FF400411E4808F0AEFC65
:100E10001B4B5B78C3F30303DBB25B1003F00103EE
:100E2000DBB21A4610211A4808F0A0FC144B5B787C
:100E3000C3F30303DBB29B1003F00103DBB21A46DA
:100E40002021134808F092FC0D4B5B78C3F3030399
:100E5000DBB2DB1003F00103DBB21A4640210B4882
:100E600008F084FC00221021074808F07FFC0022D3
:100E70000121054808F07AFC00BF0837BD4680BD57
:100E8000F401002000100048000400480018004849
:100E9000001400480000000090B585B002AF034682
:100EA000FB71C54A5378012161F307135370C24A9D
:100EB000537823F008035370FB7903F00F03D9B282
:100EC000BD4A138861F3CA131380BB4A137823F019
:100ED00040031370B84A137823F020031370B64A06
:100EE000137823F010031370B34A137823F00F0321
:100EF0001370002300930123B04AAF49B0480CF0AF
:100F0000F1FC02220021AC4816F070FC0023009393
:100F10000123AA4AA849AA480CF0E4FC0023009344
:100F20000123A64AA449A6480CF0DCFCA34B5B783D
:100F3000C3F30313DBB20D2B00F2238201A252F89C
:100F400023F000BF7D0F0008CD0F00081D10000822
:100F50006D100008BD1000080D1100085D1100089B
:100F6000D11100080F1200084D1200088B12000862
:100F7000C912000807130008451300088F4B1B888F
:100F8000C3F30B039BB21846FFF7AEFB4FF0000212
:100F90008C4BFFF72DF902460B46104619464FF0D1
:100FA0000002894BFFF754FA02460B4610461946D9
:100FB000824B5B78C3F30313DBB21C46FFF786FC5E
:100FC00002468249A3000B441A60DBE17B4B1B887D
:100FD000C3F30B039BB21846FFF786FB4FF00002EA
:100FE000784BFFF705F902460B46104619466CA3ED
:100FF000D3E90023FFF72CFA02460B4610461946A8
:101000006E4B5B78C3F30313DBB21C46FFF75EFC49
:1010100002466E49A3000B441A60B3E1674B1B887C
:10102000C3F30B039BB21846FFF75EFB4FF00002C1
:10103000644BFFF7DDF802460B46104619464FF0A9
:101040000002614BFFF704FA02460B4610461946B0
:101050005A4B5B78C3F30313DBB21C46FFF736FC35
:1010600002465A49A3000B441A608BE1534B1B887C
:10107000C3F30B039BB21846FFF736FB4FF0000299
:10108000504BFFF7B5F802460B461046194646A3EB
:10109000D3E90023FFF7DCF902460B461046194658
:1010A000464B5B78C3F30313DBB21C46FFF70EFC21
:1010B00002464649A3000B441A6063E13F4B1B887C
:1010C000C3F30B039BB21846FFF70EFB4FF0000271
:1010D0003C4BFFF78DF802460B461046194634A3E9
:1010E000D3E90023FFF7B4F902460B461046194630
:1010F000324B5B78C3F30313DBB21C46FFF7E6FB0E
:1011000002463249A3000B441A603BE12B4B1B887B
:10111000C3F30B039BB21846FFF7E6FA4FF0000249
:10112000284BFFF765F802460B461046194620A3E8
:10113000D3E90023FFF78CF902460B461046194607
:101140001E4B5B78C3F30313DBB21C46FFF7BEFBF9
:1011500002461E49A3000B441A6013E1174B1B887B
:10116000C3F30B039BB21846FFF7BEFA4FF0000221
:10117000144BFFF73DF802460B46104619460F4B3D
:101180005B78C3F30313DBB21C46FFF79FFB0246F9
:101190000E49A3000B441A60F4E000BFAFF30080D7
:1011A000666666666666FA3FFED478E926310940CF
:1011B0006666666666660240FC010020F801002053
:1011C000100900200000443F0000084000020020F9
:1011D0006E4B1B88C3F30B039BB21846FFF784FAD0
:1011E0004FF000026A4BFFF703F802460B46104629
:1011F0001946664B5B78C3F30313DBB21C46FFF75B
:1012000065FB02466349A3000B441A60BAE05F4BDA
:101210001B88C3F30B039BB21846FFF765FA4FF028
:1012200000025B4BFEF7E4FF02460B4610461946F0
:10123000564B5B78C3F30313DBB21C46FFF746FB48
:1012400002465449A3000B441A609BE04F4B1B8895
:10125000C3F30B039BB21846FFF746FA4FF00002A8
:101260004B4BFEF7C5FF02460B4610461946474B4F
:101270005B78C3F30313DBB21C46FFF727FB024680
:101280004449A3000B441A607CE0404B1B88C3F325
:101290000B039BB21846FFF727FA4FF000023C4BB6
:1012A000FEF7A6FF02460B4610461946374B5B7801
:1012B000C3F30313DBB21C46FFF708FB02463549B4
:1012C000A3000B441A605DE0304B1B88C3F30B0393
:1012D0009BB21846FFF708FA4FF000022C4BFEF7BE
:1012E00087FF02460B4610461946284B5B78C3F32E
:1012F0000313DBB21C46FFF7E9FA02462549A300B7
:101300000B441A603EE0214B1B88C3F30B039BB2D6
:101310001846FFF7E9F94FF000021D4BFEF768FF92
:1013200002460B4610461946184B5B78C3F303136D
:10133000DBB21C46FFF7CAFA02461649A3000B446B
:101340001A601FE0114B1B88C3F30B039BB21846B6
:10135000FFF7CAF94FF000020D4BFEF749FF0246B6
:101360000B4610461946094B5B78C3F30313DBB2F7
:101370001C46FFF7ABFA02460649A3000B441A606D
:1013800000E000BF00BF0C37BD4690BDF801002053
:101390000000443F0002002080B582B000AF7860BA
:1013A0007B681B889BB21946002000F0F5F97B682A
:1013B0005B889BB21946012000F0EEF97B689B88A0
:1013C0009BB21946022000F0E7F97B68DB889BB2EC
:1013D0001946032000F0E0F97B681B899BB219468F
:1013E000042000F0D9F97B685B899BB2194605207F
:1013F00000F0D2F97B689B899BB21946062000F069
:10140000CBF97B68DB899BB21946072000F0C4F951
:101410007B681B8A9BB21946082000F0BDF97B68E7
:101420005B8A9BB21946092000F0B6F97B689B8A5B
:101430009BB219460A2000F0AFF97B68DB8A9BB2A9
:1014400019460B2000F0A8F97B681B8B9BB219464C
:101450000C2000F0A1F97B685B8B9BB219460D2034
:1014600000F09AF97B689B8B9BB219460E2000F026
:1014700093F97B68DB8B9BB219461F2000F08CF937
:101480007B681B8C9BB21946202000F085F97B6895
:101490005B8C9BB21946222000F07EF97B689B8C06
:1014A0009BB21946232000F077F97B68DB8C9BB256
:1014B0001946242000F070F97B681B8D9BB21946F9
:1014C000252000F069F97B685B8D9BB219462620C8
:1014D00000F062F97B689B8D9BB21946272000F0D3
:1014E0005BF97B68DB8D9BB21946282000F054F92C
:1014F0007B681B8E9BB21946292000F04DF97B6852
:101500005B8E9BB219462A2000F046F97B689B8EC1
:101510009BB219462B2000F03FF97B68DB8E9BB213
:1015200019462C2000F038F97B681B8F9BB21946B6
:101530002D2000F031F97B685B8F9BB219462E207D
:1015400000F02AF97B689B8F9BB219462F2000F090
:1015500023F97B68DB8F9BB21946302000F01CF921
:101560007B68B3F840309BB21946312000F014F983
:101570007B68B3F842309BB21946322000F00CF978
:101580007B68B3F844309BB21946332000F004F96D
:101590007B68B3F846309BB21946342000F0FCF863
:1015A0007B68B3F848309BB21946352000F0F4F858
:1015B0007B68B3F84A309BB21946362000F0ECF84D
:1015C0007B68B3F84C309BB21946372000F0E4F842
:1015D0007B68B3F84E309BB219463E2000F0DCF831
:1015E0007B68B3F850309BB219463F2000F0D4F826
:1015F0007B68B3F852309BB21946402000F0CCF81B
:101600007B68B3F854309BB21946412000F0C4F80F
:101610007B68B3F856309BB21946422000F0BCF804
:101620007B68B3F858309BB21946432000F0B4F8F9
:101630007B68B3F85A309BB21946442000F0ACF8EE
:101640007B68B3F85C309BB21946452000F0A4F8E3
:101650007B68B3F85E309BB21946472000F09CF8D7
:101660007B68B3F860309BB21946502000F094F8C4
:101670007B68B3F862309BB21946512000F08CF8B9
:101680007B68B3F864309BB21946522000F084F8AE
:101690007B68B3F866309BB21946532000F07CF8A3
:1016A0007B68B3F868309BB21946542000F074F898
:1016B0007B68B3F86A309BB21946552000F06CF88D
:1016C0007B68B3F86C309BB21946562000F064F882
:1016D0007B68B3F86E309BB21946572000F05CF877
:1016E0007B68B3F870309BB21946582000F054F86C
:1016F0007B68B3F872309BB21946592000F04CF861
:101700007B68B3F874309BB219465A2000F044F855
:101710007B68B3F876309BB219465B2000F03CF84A
:101720007B68B3F878309BB219465C2000F034F83F
:101730007B68B3F87A309BB219465D2000F02CF834
:101740007B68B3F87C309BB219465E2000F024F829
:101750007B68B3F87E309BB219465F2000F01CF81E
:101760007B68B3F880309BB21946602000F014F813
:101770007B68B3F882309BB219461D2000F00CF84C
:101780007B68B3F884309BB219461E2000F004F841
:1017900000BF0837BD4680BD80B584B000AF0346AA
:1017A0000A46FB801346BB800023BB60FB881A04FB
:1017B000BB881343FB60FB681B0CDBB23B72FB680E
:1017C0001B0EDBB27B72FB68DBB2BB72FB681B0AD1
:1017D000DBB2FB720D4B4FF480129A614FF09043D5
:1017E0004FF480129A6107F108010223022208488F
:1017F0000BF0B8FD4FF0904310229A61034B10227A
:101800009A6100BF1037BD4680BD00BF0008004888
:10181000AC08002080B500AF4FF0904310229A61D1
:101820001C4B10229A61012201211B4807F09EFFE8
:1018300001220221184807F099FF012204211648CD
:1018400007F094FF01220821134807F08FFF0022C0
:101850000821114807F08AFF002204210E4807F0F2
:1018600085FF012208210C4807F080FF0122042196
:10187000094807F07BFF0948FFF78EFD002202218F
:10188000054807F073FF00220121034807F06EFFAF
:1018900000BF80BD00080048001400480000002080
:1018A00080B588B000AF786039603B68FB617B68C9
:1018B000BB614FF6FF73FB822DE0FB69B3F5806FD0
:1018C00028BF4FF48063FB6000233B610FE0BA69DF
:1018D0003B691344184603F097F803461946124A29
:1018E0003B6913440A461A703B6901333B613A690C
:1018F000FB689A42EBD3FB8A1A46F9680A4802F061
:10190000BDFE0346FB82BA69FB681344BB61FA69FA
:10191000FB68D31AFB61FB69002BCED1FB8A18460A
:101920002037BD4680BD00BF4402002000000000FB
:1019300080B586B000AF02F00FFF03220021C4483B
:1019400015F054FFC34B00221A70C34B00221A70CB
:10195000C24B3B6139698A69CB691346FB603969BF
:101960000A6A4B6A1346BB6039690A694B691346B8
:101970007B6000237B80082208210820FFF78CF978
:1019800002F0E0FE4FF47A7004F0BEF900F0DAFCE9
:1019900002F0E2FE7B68B3F5406F0AD1AC4A1378DF
:1019A00043F001031370002200210C20FFF774F9AB
:1019B00004E0A74A137823F001031370F968A848DC
:1019C00002F07DFE03461A46A64B1A80A54B1B88E3
:1019D0001A46BB68934205D19D4A137843F004032D
:1019E000137004E09A4A137823F00403137002F092
:1019F000A9FE4FF47A7004F087F900F0A3FC02F01E
:101A0000ABFE994803F000F803467B80974802F04C
:101A1000FBFF03461B0203F47F431AB2B7F90230FF
:101A200013431BB27B807B88B3F5606F0AD1884A71
:101A3000137843F002031370002200210E20FFF7F9
:101A40002BF904E0824A137823F00203137002F0AA
:101A500079FE4FF47A7004F057F900F073FC02F04D
:101A60007BFE0A220A210A20FFF716F901224FF411
:101A700080717F4807F07AFE012280217D4807F0BF
:101A800075FE01224FF40071794807F06FFE0122C4
:101A90004021784807F06AFE4FF47A7004F034F978
:101AA00000F050FC00224FF48071714807F05EFE98
:101AB000002280216F4807F059FE00224FF4007188
:101AC0006B4807F053FE002240216A4807F04EFEA3
:101AD000012003F0D1FF00F035FC0522664967487C
:101AE00015F074FE0346002B05D1594A137843F0D4
:101AF0000803137004E0564A137823F008031370A8
:101B000005225F495F4815F061FE0346002B05D1B1
:101B10004F4A137843F01003137004E04C4A1378D3
:101B200023F010031370002003F0A6FF00F00AFC5E
:101B300002F008FE544805F019F80346002B04D0C3
:101B4000434A937823F00403937064214E4805F0D0
:101B50002FF90346002B22D14B4805F019FA07EE66
:101B6000900AF8EE677A17EE900AFEF7CFFD34A3DD
:101B7000D3E90023FEF73CFB02460B46104619460C
:101B800031A3D3E90023FEF763FC02460B4610465F
:101B90001946FEF79BFE02463C4B9A6304E02C4A32
:101BA000937823F004039370374805F0B1F80346A7
:101BB000002B04D0264A937823F00403937002F09C
:101BC000CBFD40F2B163FB82B7F91630002B04DA8B
:101BD000FB8AA3F500439BB2FB82FB8A1B01FB82BD
:101BE000FB8A19463120FFF7D7FDFB8A19463020C2
:101BF000FFF7D2FDFB8A19462F20FFF7CDFDFB8AA8
:101C000019462E20FFF7C8FD01211D20FFF7C4FD56
:101C10001F4B00221A701F4B00221A6000237B7595
:101C200008E000F08FFB7B7D1846FFF735F97B7DE0
:101C300001337B757B7D0E2BF3D900233B75F3E2DB
:101C40006666666666664A3FCDCCCCCCCCCCEC3FB3
:101C500040020020150700201407002000000E0895
:101C6000000002083C020020020050000300500067
:101C700000040048000800485C0B0020A000002081
:101C8000540B0020A8000020440600200002002081
:101C9000170700201807002000F054FB3B7D0E2B97
:101CA00000F2BE8201A252F823F000BFE91C000836
:101CB000411D0008991D000821220008F71D000899
:101CC0004F1E0008A71E0008FF1E0008571F00082F
:101CD000F51F00084D200008A5200008FD20000881
:101CE00055210008AD2100083B7DBD4A9B001344EF
:101CF0001B681846FEF70AFDABA3D3E90023FEF7E5
:101D0000C7FD0346002B15D03B7DB54A9B0013440D
:101D10001B681846FEF7FAFCA5A3D3E90023FEF7DB
:101D2000C1FD0346002B05D0AE4A137843F02003D3
:101D3000137076E2AB4A137823F02003137070E23D
:101D40003B7DA74A9B0013441B681846FEF7DEFC48
:101D500099A3D3E90023FEF79BFD0346002B15D082
:101D60003B7D9F4A9B0013441B681846FEF7CEFC40
:101D700093A3D3E90023FEF795FD0346002B05D07E
:101D8000984A137843F0400313704AE2954A137857
:101D900023F04003137044E23B7D914A9B001344BF
:101DA0001B681846FEF7B2FC7FA3D3E90023FEF7B9
:101DB0006FFD0346002B15D03B7D894A9B001344E1
:101DC0001B681846FEF7A2FC79A3D3E90023FEF7AF
:101DD00069FD0346002B05D0824A137843F0800347
:101DE000137004E07F4A137823F0800313703B7D67
:101DF00001333B7515E23B7D794A9B0013441B6818
:101E00001846FEF783FC6AA3D3E90023FEF740FDE2
:101E10000346002B15D03B7D714A9B0013441B6881
:101E20001846FEF773FC68A3D3E90023FEF73AFDDA
:101E30000346002B05D06B4A537843F001035370DF
:101E4000EFE1684A537823F001035370E9E13B7DE9
:101E5000634A9B0013441B681846FEF757FC54A3C3
:101E6000D3E90023FEF714FD0346002B15D03B7D7C
:101E70005B4A9B0013441B681846FEF747FC52A3BD
:101E8000D3E90023FEF70EFD0346002B05D0554A8B
:101E9000537843F002035370C3E1524A537823F05E
:101EA00002035370BDE13B7D4D4A9B0013441B6808
:101EB0001846FEF72BFC46A3D3E90023FEF7F2FCFD
:101EC0000346002B15D03B7D454A9B0013441B68FD
:101ED0001846FEF71BFC40A3D3E90023FEF7D8FC0D
:101EE0000346002B05D03F4A537843F00403537058
:101EF00097E13C4A537823F00403537091E13B7D12
:101F0000374A9B0013441B681846FEF7FFFB30A3BB
:101F1000D3E90023FEF7C6FC0346002B15D03B7D1A
:101F20002F4A9B0013441B681846FEF7EFFB2AA3B9
:101F3000D3E90023FEF7ACFC0346002B05D0294A69
:101F4000537843F0080353706BE1264A537823F02B
:101F50000803537065E13B7D214A9B0013441B68D5
:101F60001846FEF7D3FB1AA3D3E90023FEF79AFC29
:101F70000346002B38D03B7D194A9B0013441B6855
:101F80001846FEF7C3FB14A3D3E90023FEF780FC39
:101F90000346002B28D0134A537843F010035370A4
:101FA0003FE100BFAFF30080CDCCCCCCCCCC144013
:101FB00033333333333313409A99999999990D40B8
:101FC000CDCCCCCCCCCC0840CDCCCCCCCCCC1040E7
:101FD000CDCCCCCCCCCCDC3F9A9999999999E13F66
:101FE00000020020400200208B4A537823F01003A7
:101FF000537016E13B7D894A9B0013441B681846C9
:10200000FEF784FB7CA3D3E90023FEF74BFC0346D9
:10201000002B15D03B7D814A9B0013441B6818465A
:10202000FEF774FB76A3D3E90023FEF731FC0346E9
:10203000002B05D0784A537843F020035370F0E02A
:10204000754A537823F020035370EAE03B7D734ACE
:102050009B0013441B681846FEF758FB66A3D3E9A0
:102060000023FEF71FFC0346002B15D03B7D6B4A77
:102070009B0013441B681846FEF748FB60A3D3E996
:102080000023FEF705FC0346002B05D0624A537877
:1020900043F040035370C4E05F4A537823F0400399
:1020A0005370BEE03B7D5D4A9B0013441B6818469D
:1020B000FEF72CFB50A3D3E90023FEF7F3FB034606
:1020C000002B15D03B7D554A9B0013441B681846D6
:1020D000FEF71CFB4AA3D3E90023FEF7D9FB034616
:1020E000002B05D04C4A537843F08003537098E09E
:1020F000494A537823F08003537092E03B7D474A6E
:102100009B0013441B681846FEF700FB3AA3D3E973
:102110000023FEF7C7FB0346002B15D03B7D3F4A4B
:102120009B0013441B681846FEF7F0FA34A3D3E96A
:102130000023FEF7ADFB0346002B05D0364A93780B
:1021400043F0010393706CE0334A937823F001036A
:10215000937066E03B7D314A9B0013441B68184630
:10216000FEF7D4FA24A3D3E90023FEF79BFB034632
:10217000002B15D03B7D294A9B0013441B68184651
:10218000FEF7C4FA1EA3D3E90023FEF781FB034642
:10219000002B05D0204A937843F00203937040E06F
:1021A0001D4A937823F0020393703AE01B4B9B6B1C
:1021B0001846FEF7ABFA14A3D3E90023FEF768FB39
:1021C0000346002B12D0154B9B6B1846FEF79EFA68
:1021D0000FA3D3E90023FEF765FB0346002B05D0D0
:1021E0000D4A937843F0040393701AE00A4A9378F7
:1021F00023F00403937014E0CDCCCCCCCCCCDC3FEA
:102200009A9999999999E13F9A99999999990D4033
:10221000CDCCCCCCCCCC0840400200200002002029
:1022200000BF3B7D01333B753B7D0E2B7FF634AD0C
:102230003C4B00221A703C4B00221A703B4B002290
:102240001A603B4A92F83E3023F0010382F83E3098
:10225000374A92F83E3023F0020382F83E30344A87
:1022600092F83E3023F0040382F83E30304A92F870
:102270003E3023F0080382F83E302D4A92F83E307B
:1022800023F0100382F83E30294A92F83E3023F0C2
:10229000200382F83E30264A92F83E3023F0400375
:1022A00082F83E30224A92F83E3023F0800382F8D2
:1022B0003E304FF6F0713120FFF76EFA4FF6F071B5
:1022C0003020FFF769FA4FF6F0712F20FFF764FA1C
:1022D0004FF6F0712E20FFF75FFA01211D20FFF766
:1022E0005BFA03221349144815F070FA0346002BD9
:1022F00006D1124B01221A70114B01221A700AE00A
:102300000E4B00221A700E4B00221A700F220F2162
:102310000F20FEF7C1FC02F015FA00BF1837BD46CA
:1023200080BD00BF160700201707002018070020F7
:1023300088070020880000204002002015070020A8
:102340001407002080B500AF03F0D2FC0246054B15
:102350001B68D31A42F21072934201D902F094FA28
:1023600000BF80BDBC06002080B58AB000AF07F179
:102370001C0300221A605A609A603B1D00221A60FA
:102380005A609A60DA601A615A61304B304A1A60BA
:102390002E4B4FF440325A602C4B00229A602B4B4C
:1023A0000022DA60294B00221A61284B04225A616C
:1023B000264B00221A76254B01225A76234B012206
:1023C000DA61224B002283F82020204B00229A62FF
:1023D0001E4B0022DA621D4B002283F830201B4B7B
:1023E00000225A63194B002283F83820174803F063
:1023F00001FF0346002B01D002F046FA0023FB61E7
:1024000007F11C031946114805F01CFF0346002B79
:1024100001D002F039FA0F4B7B600623BB6000232A
:10242000FB607F233B6104237B610023BB613B1D79
:102430001946064804F0D4FD0346002B01D002F0F3
:1024400023FA00BF2837BD4680BD00BF44060020E8
:10245000000004500200300480B5ACB000AF7860DA
:1024600007F19C0300221A605A609A60DA601A61D0
:1024700007F110038C220021184615F0B7F97B688C
:102480001B68274A934246D14FF480433B614FF08B
:102490008053C7F88C3003237B610123BB61082381
:1024A000FB6102233B6202237B620223BB624FF08B
:1024B0008073FB6207F11003184609F073FD0346B1
:1024C000002B01D002F0E0F9164BDB6C154A43F407
:1024D0000053D364134BDB6C03F40053FB60FB68C5
:1024E000104BDB6C0F4A43F00403D3640D4BDB6CE1
:1024F00003F00403BB60BB680123C7F89C300323CF
:10250000C7F8A0300023C7F8A43007F19C03194690
:10251000054806F061FD00BFB037BD4680BD00BF75
:1025200000000450001002400008004880B582B04E
:1025300000AF78607B681B68084A934209D1084B5A
:10254000DB6C074A23F40053D3640121054806F0ED
:10255000C1FF00BF0837BD4680BD00BF000004506A
:10256000001002400008004880B58EB000AF07F1AF
:10257000240300221A605A609A60DA601A61B74B2D
:10258000DB6CB64A43F01003D364B44BDB6C03F04E
:1025900010033B623B6AB14BDB6CB04A43F004036F
:1025A000D364AE4BDB6C03F00403FB61FB69AB4B04
:1025B000DB6CAA4A43F02003D364A84BDB6C03F026
:1025C0002003BB61BB69A54BDB6CA44A43F08003CD
:1025D000D364A24BDB6C03F080037B617B699F4B70
:1025E000DB6C9E4A43F00103D3649C4BDB6C03F02D
:1025F00001033B613B69994BDB6C984A43F0020352
:10260000D364964BDB6C03F00203FB60FB68934BD7
:10261000DB6C924A43F04003D364904BDB6C03F0D5
:102620004003BB60BB688D4BDB6C8C4A43F00803F6
:10263000D3648A4BDB6C03F008037B607B6808F093
:10264000EBFB00224FF6FF71854807F08FF8002260
:10265000D821844807F08AF8002248F213014FF08D
:10266000904007F083F8002240F217317E4807F0CF
:102670007DF8002241F6C3117C4807F077F800226C
:102680004FF680717A4807F071F800224FF42071FC
:10269000784807F06BF801224FF44061754807F065
:1026A00065F854237B624FF48813BB620023FB62FE
:1026B00007F1240319466E4806F08EFC29237B623D
:1026C0000323BB620023FB6207F124031946684819
:1026D00006F082FC4EF226137B620323BB620023CA
:1026E000FB6207F1240319465E4806F075FC4FF6BD
:1026F000FF737B620123BB620023FB6200233B6309
:1027000007F124031946564806F066FCD8237B627D
:102710000123BB620023FB6200233B6307F1240318
:102720001946504806F058FC48F213037B62012317
:10273000BB620023FB6200233B6307F124031946BD
:102740004FF0904006F048FC40F217337B620123C3
:10275000BB620023FB6200233B6307F1240319469D
:10276000414806F039FC41F6C3137B620123BB628A
:102770000023FB6200233B6307F1240319463B4817
:1027800006F02AFC4FF680737B620123BB620023B4
:10279000FB6200233B6307F124031946344806F02B
:1027A0001BFC4FF44E637B620323BB620023FB627E
:1027B00007F1240319462C4806F00EFC4EF25F1375
:1027C0007B620323BB620023FB6207F124031946EB
:1027D000284806F001FC4FF420737B620123BB62A2
:1027E0000023FB6200233B6307F1240319462148C1
:1027F00006F0F2FB4FF440637B620123BB620123CE
:10280000FB6200233B6307F124031946194806F0D5
:10281000E3FB3C237B620023BB620023FB6207F1E6
:1028200024031946114806F0D7FB4FF4C0637B62BE
:102830000323BB620023FB6207F1240319464FF018
:10284000904006F0C9FB20237B624FF48813BB62E3
:102850000023FB6207F1240319460DE0001002403B
:102860000014004800080048000400480018004810
:1028700000100048000C0048154806F0ADFB4FF46E
:1028800060437B620323BB620023FB6207F12403E6
:102890001946104806F0A0FB08237B620323BB62A5
:1028A0000023FB6207F1240319460B4806F094FB52
:1028B00002237B620023BB620023FB6207F1240337
:1028C0001946064806F088FB00BF3837BD4680BD74
:1028D000000C004800180048001C00480010004888
:1028E00080B500AF0B4B0C4A1A600A4B06225A60A7
:1028F000084B40F6FF72DA60064B40F6C3129A604E
:10290000044806F05FFF0346002B01D001F0BCFF36
:1029100000BF80BDAC0600200030004080B582B012
:1029200000AF786028221B49786814F08BFF796823
:102930000A684B68184819498B4208BF824225D063
:102940002822FF21786814F051FF7B68002242F0B2
:1029500054021A70002242F04F025A70002242F0D4
:102960004C029A70002242F05302DA70002242F0C8
:1029700054021A71002242F04F025A71002242F0B2
:102980004F029A71002242F04202DA7100BF08370A
:10299000BD4680BD00000E08544F4C53544F4F426B
:1029A00080B58EB000AF786007F1100300221A6086
:1029B0005A609A60DA600023FB607B68FB62002348
:1029C00087F8373005F0ECFF00233B6102237B6181
:1029D0004FF4E073BB610123FB6107F10C0207F1C7
:1029E00010031146184606F053F9034687F83730AE
:1029F00097F83730002B3FD1FB68B3F1FF3F3BD155
:102A000000233B6332E03B6B03F1807303F5E0335B
:102A1000D9003B6BDB00FA6A1344D3E900230020A2
:102A200005F044FF034687F8373097F83730002B1E
:102A300020D13B6B03F1807303F5E033DB00D3E976
:102A40000023C7E908233B6BDB00FA6A1344D3E990
:102A50000023D7E90801994208BF904203D001231F
:102A600087F8373007E03B6B01333B633B6B042B4C
:102A7000C9D904E000BF02E0012387F8373005F030
:102A8000B1FF97F8373018463837BD4680BD000093
:102A90002DE9F04FC1B000AF03F085F803F028F93D
:102AA0000346B84A136001F087FCB74B96225A637D
:102AB0000021B6480BF0B4FFFFF756FD02F0D6F840
:102AC00002F08EFA13F010FF02F03CFC02F088FED8
:102AD00002F0B6FEFFF748FC02F04CF802F088F86E
:102AE00002F042FB02F0B6FB02F0A4FCFFF7F8FE96
:102AF000A7480BF095FCA7480AF002FAA6480EF08A
:102B0000E7FBA6480EF0E4FB0522A549A2480EF01B
:102B10007FFD0522A349A1480EF07AFDA24B642255
:102B20005A630021A1480BF07BFF4FF080436422E1
:102B30009A6304219E480BF073FF9E4B64221A6433
:102B40000C219D480BF06CFF01F010FEFEF762FEB9
:102B50009A494FF0006001F0B2FD03461A46984BC7
:102B60001A80974B1A88974B1A80974806F0BAFE3E
:102B7000964B1B78082B44D1954BC7F8E8304FF0A3
:102B800000024FF00003C7E9302307F15403184651
:102B9000FFF7C4FEFA6D3B6EC7E9302307F1B803B7
:102BA00007F1C00292E8030083E8030007F1B803CD
:102BB00008221946874814F009FE0346002B1BD152
:102BC000D7F8E80001F0A0FC0346012B14D1FEF772
:102BD000AFFE814B1B78012B13D101F0BDFD724B71
:102BE00000225A634FF0804300229A63714B002207
:102BF0001A6401F035FC04E0FEF79AFE734B0922DB
:102C00001A70764B1B78012BAFD10023A7F8B63092
:102C1000724B00221A70724B9B78A7F8E630B7F817
:102C2000E630062B04D9B7F8E630B3F5006F2ED99D
:102C30006C4B24221A706B4B2B225A70694B072263
:102C40009A70684B0022DA70664B00221A71654B4D
:102C50003B225A71634B23229A710721614801F08C
:102C60002EFD03461A46564B1A80554B1B88DAB286
:102C70005C4BDA70524B1B881B0A9BB2DAB2594B81
:102C80001A710721574813F073FF01F084BB544BAE
:102C90001B78242B2ED0534B24221A70514B2922FF
:102CA0005A70504B07229A704E4B0022DA704D4BEF
:102CB00000221A714B4B3B225A714A4B23229A71C4
:102CC0000721484801F0FBFC03461A463C4B1A809A
:102CD0003B4B1B88DAB2434BDA70394B1B881B0A1B
:102CE0009BB2DAB23F4B1A7107213E4813F040FF06
:102CF00001F051BBB7F8E630013B394AD35C1BB257
:102D00001B021AB2B7F8E630023B3549CB5C1BB266
:102D100013431BB2A7F8E430B7F8E43042F23B3279
:102D2000934261D02F4B24221A702E4B2A225A70C4
:102D30002C4B07229A702B4B0022DA70294B002271
:102D40001A71284B3B225A71264B23229A71072174
:102D5000244801F0B4FC03461A46194B1A80184B5C
:102D60001B88DAB21F4BDA70154B1B881B0A9BB20B
:102D7000DAB21C4B1A7107211A4813F0F9FE01F060
:102D80000ABB00BFBC06002000080040BC0A0020AF
:102D9000080B002074090020640B0020EC0B0020BD
:102DA000540B00205C0B0020002C0140D8090020AF
:102DB000240A002000040040700A0020FFFF0100E8
:102DC000C8060020CA060020AC060020940000209F
:102DD000000002088C000020140700204C1700207F
:102DE0004C0F0020D0060020B7F8B6309BB201335C
:102DF000B94AD35C053B212B01F29E8201A252F815
:102E000023F000BF8D2E0008394300083943000825
:102E10003943000839430008BB2F00083943000834
:102E20003943000839430008FB31000839430008E2
:102E300039430008394300088D340008394300083D
:102E40003943000839430008A53600083943000813
:102E50003943000839430008394300083943000862
:102E60003943000839430008633A00085338000822
:102E70003943000839430008394300083943000842
:102E80009141000839430008113F0008B7F8B630F7
:102E90009BB21A46904B1A44904B1068516803C37A
:102EA0008E4B9A888E4B1A808C4B00229A808B4BCB
:102EB0005B881946894801F002FC03461A46894B93
:102EC0001A80874B1A88874B1B889A4246D18648BE
:102ED0000BF05AFB854B09221A70854B24221A707D
:102EE000834B06225A70824B0B229A70814B1B88AF
:102EF000DAB27F4BDA707F4B1B881B0A9BB2DAB2C7
:102F00007B4B1A717A4B00225A71794B01229A71CC
:102F1000774B0022DA71764B00221A72744B3B22F7
:102F20005A72734B23229A720B21714801F0C7FB2E
:102F300003461A466B4B1A806A4B1B88DAB26C4BFD
:102F4000DA71684B1B881B0A9BB2DAB2684B1A72A3
:102F50000B21674813F00CFE01F01DBA644B2422CC
:102F60001A70634B23225A70614B07229A70604B90
:102F70000022DA705E4B00221A715D4B3B225A71BF
:102F80005B4B23229A710721594801F098FB0346B5
:102F90001A46544B1A80534B1B88DAB2544BDA70E2
:102FA000504B1B881B0A9BB2DAB2514B1A71072196
:102FB0004F4813F0DDFD01F0EEB9002387F8FF3034
:102FC000B7F8B6309BB21A46434B1A444A4B1068C6
:102FD000516803C3484B9A88414B1A80464B0022E4
:102FE0009A80454B5B881946434801F068FB0346CD
:102FF0001A463C4B1A803A4B1A883A4B1B889A4225
:1030000040F0CC803D4B3E4A1A604023C7F8D03098
:10301000C023C7F8CC3005F0C3FC0023C7F8A430A8
:103020000123C7F8A830D7F8D030C7F8AC30D7F8AC
:10303000CC30C7F8B03007F1A4033249184605F088
:1030400027FE03461A46304B1A702F4B1B78002B75
:1030500005D197F8FF30013387F8FF3004E097F887
:10306000FF30013B87F8FF3097F8FF30012B4DD040
:10307000244B1B68B3F1FF3F48D01D4B24221A702C
:103080001B4B0D225A701A4B07229A70184B0022C4
:10309000DA70174B00221A71154B3B225A71144BF0
:1030A00023229A710721124801F009FB03461A46B0
:1030B0000C4B1A800B4B1B88DAB20D4BDA70094BA4
:1030C0001B881B0A9BB2DAB2094B1A710721084808
:1030D00013F04EFD50E000BF4C0F002060070020B1
:1030E000CE060020C8060020080B00209400002017
:1030F000D0060020CA0600206807002098000020A3
:1031000000000208C4060020C006002097F8FF3027
:10311000012B31D1A34B1B68B3F1FF3F2CD1A24B44
:1031200024221A70A04B0C225A709F4B07229A70CF
:103130009D4B0022DA709C4B00221A719A4B3B2265
:103140005A71994B23229A710721974801F0B7FAD7
:1031500003461A46954B1A80944B1B88DAB2924B61
:10316000DA70924B1B881B0A9BB2DAB28E4B1A7133
:1031700007218D4813F0FCFC05F034FC8C4B1B68D8
:103180008C49184601F09BFA03461A46874B1A8071
:10319000864B1A88884B1A8001F0FDB8824B242296
:1031A0001A70814B23225A707F4B07229A707E4BF4
:1031B0000022DA707C4B00221A717B4B3B225A7141
:1031C000794B23229A710721774801F078FA034658
:1031D0001A46764B1A80754B1B88DAB2724BDA703E
:1031E000724B1B881B0A9BB2DAB26F4B1A71072114
:1031F0006D4813F0BDFC01F0CEB8002387F8FE3017
:10320000B7F8B6309BB21A466C4B13446C4A1C4656
:10321000164604F1400C35462346186859689A68EA
:10322000DB680FC5103410366445F4D1644B9A8FB7
:10323000644B1A80624B00229A87614B9B78194637
:103240005F4801F03CFA03461A46584B1A805D4B22
:103250001A88564B1B889A4240F0E98005F0A0FB83
:10326000002387F8FD305FE0514B1B680833564A56
:1032700093422FD905F0B6FB4B4B24221A704A4BD0
:1032800010225A70484B07229A70474B0022DA707E
:10329000454B00221A71444B3B225A71424B232268
:1032A0009A710721404801F00AFA03461A463F4B3B
:1032B0001A803E4B1B88DAB23B4BDA703B4B1B88C3
:1032C0001B0A9BB2DAB2384B1A710721364813F049
:1032D0004FFC2FE0364B186897F8FD30384ADB007A
:1032E000D1184A688B680146002005F0DFFA0346D2
:1032F0001A46364B1A70354B1B78002B05D197F8C0
:10330000FE30013387F8FE3004E097F8FE30013BD1
:1033100087F8FE30264B1B680833254A136097F860
:10332000FD30013387F8FD30254BDB7897F8FD2021
:103330009A4299D905F056FB97F8FE20204BDB788E
:1033400001339A4244D1184B24221A70164B0F2293
:103350005A70154B07229A70134B0022DA70124BE9
:1033600000221A71104B3B225A710F4B23229A7183
:1033700007210D4801F0A3F903461A460B4B1A80AA
:103380000A4B1B88DAB2084BDA70084B1B881B0A01
:103390009BB2DAB2044B1A710721034813F0E8FB21
:1033A00000F0F9BFC4060020D0060020C8060020A7
:1033B00098000020FFFF0500CC0600204C0F0020E5
:1033C00020070020CE060020FFFF0708C0060020CF
:1033D000AA4B24221A70A94B10225A70A74B07221D
:1033E0009A70A64B0022DA70A44B00221A71A34BEC
:1033F0003B225A71A14B23229A7107219F4801F069
:103400005EF903461A469E4B1A809D4B1B88DAB222
:103410009A4BDA709A4B1B881B0A9BB2DAB2974B15
:103420001A710721954813F0A3FB00F0B4BF934B2A
:1034300024221A70914B23225A70904B07229A70C3
:103440008E4B0022DA708D4B00221A718B4B3B227F
:103450005A718A4B23229A710721884801F02FF96B
:1034600003461A46864B1A80854B1B88DAB2834B7B
:10347000DA70834B1B881B0A9BB2DAB27F4B1A713E
:1034800007217E4813F074FB00F085BF4FF0000267
:103490004FF00003C7E92623002387F8FC30794B5F
:1034A0001A683A605B687B60D7E90023C7E9262386
:1034B000B7F8B6309BB21A46734B1A44734B106878
:1034C000516803C312891A80704BDA88704B1A80D6
:1034D0006E4B0022DA806D4B5B8819466B4801F019
:1034E000EEF803461A46664B1A80694B1A88644BFD
:1034F0001B889A4240F0938007F154031846FFF767
:103500000DFAD7E926231146F9653B665F4B9B8888
:103510009BB200229846914643467B664B46BB666B
:1035200007F154031846FFF73BFA03461A46594B76
:103530001A70584B1B78002B02D1022387F8FC30FD
:1035400097F8FC30022B2DD14C4B24221A704B4B98
:1035500013225A70494B07229A70484B0022DA70A6
:10356000464B00221A71454B3B225A71434B232292
:103570009A710721414801F0A2F803461A46404BD0
:103580001A803F4B1B88DAB23C4BDA703C4B1B88ED
:103590001B0A9BB2DAB2394B1A710721374813F074
:1035A000E7FA2CE0354B24221A70344B14225A705F
:1035B000324B07229A70314B0022DA702F4B0022D7
:1035C0001A712E4B3B225A712C4B23229A710721E0
:1035D0002A4801F074F803461A46294B1A80284BF2
:1035E0001B88DAB2254BDA70254B1B881B0A9BB26D
:1035F000DAB2224B1A710721204813F0B9FA264B90
:103600001B681946254801F05AF803461A461C4B18
:103610001A801B4B1A88224B1A8000F0BCBE174B35
:1036200024221A70154B23225A70144B07229A70C9
:10363000124B0022DA70114B00221A710F4B3B2201
:103640005A710E4B23229A7107210C4801F037F86A
:1036500003461A460A4B1A80094B1B88DAB2074BFD
:10366000DA70074B1B881B0A9BB2DAB2034B1A7144
:103670000721024813F07CFA00F08DBED00600202E
:10368000C80600208C0000204C0F0020700700208E
:10369000CE060020C006002010070020000002080F
:1036A000CC060020002387F8FB30B7F8B6309BB279
:1036B0001A46914B1A44914B10685168926807C39F
:1036C0008E4B1A898E4B1A808C4B00221A818B4BA1
:1036D0005B881946894800F0F2FF03461A46894B79
:1036E0001A80874B1A88874B1B889A4240F0828049
:1036F000824B5B68844A1360834B1B68194683487E
:1037000000F0DDFF03461A467E4B1A807D4B1A8877
:103710007F4B1A8007F154031846FFF7FFF87A4BE6
:103720001B6800229A4693465346FB665B463B67FE
:10373000744B1B889BB20022BB60FA60D7E902126F
:103740000B467B671346BB6707F154031846FFF728
:1037500027F903461A466F4B1A706E4B1B78002BE5
:1037600002D1022387F8FB3097F8FB30022B40F0A0
:103770001186694B24221A70674B16225A70664BC9
:103780000B229A70624B1B88DAB2634BDA70604B83
:103790001B881B0A9BB2DAB25F4B1A715E4B002288
:1037A0005A715D4B01229A715B4B0022DA715A4BC0
:1037B00000221A72584B3B225A72574B23229A729C
:1037C0000B21554800F07BFF03461A464D4B1A80EB
:1037D0004C4B1B88DAB2504BDA714A4B1B881B0AE0
:1037E0009BB2DAB24C4B1A720B214B4813F0C0F962
:1037F00000F0D0BD484B24221A70474B23225A7048
:10380000454B07229A70444B0022DA70424B00224B
:103810001A71414B3B225A713F4B23229A71072167
:103820003D4800F04CFF03461A46364B1A80354B94
:103830001B88DAB2384BDA70324B1B881B0A9BB2FA
:10384000DAB2354B1A710721334813F091F900F0C1
:10385000A1BD002387F8FA30B7F8B6309BB21A46FC
:10386000254B1A442D4B1068516803C32B4B9A8883
:10387000234B1A80294B00229A80284B5B881946DB
:10388000264800F01CFF03461A461E4B1A801C4BAC
:103890001A881C4B1B889A4240F0B480002001F02B
:1038A000F5F802F025FAC7F8D40009E002F020FA92
:1038B0000246D7F8D430D31A41F28832934207D85F
:1038C00001F02AF9034603F00103002BEED100E0DA
:1038D00000BF012387F8F9300023C7F8F43024E053
:1038E000D7F8F40001F090F80346FF2B18D000231E
:1038F00087F8F9301DE000BF4C0F00207C07002046
:10390000CE060020C8060020100700200000020894
:10391000CC060020C0060020D0060020680700204A
:10392000D7F8F4300133C7F8F430D7F8F430FF2B70
:10393000D6D997F8F930012B02D1012387F8FA3054
:1039400097F8FA30012B2ED19A4B24221A70994BFA
:1039500020225A70974B07229A70964B0022DA70F9
:10396000944B00221A71934B3B225A71914B2322A4
:103970009A7107218F4800F0A2FE03461A468E4B2B
:103980001A808D4B1B88DAB28A4BDA708A4B1B88FF
:103990001B0A9BB2DAB2874B1A710721854813F0D4
:1039A000E7F800F0F8BC834B24221A70814B2122E7
:1039B0005A70804B07229A707E4B0022DA707D4B42
:1039C00000221A717B4B3B225A717A4B23229A7147
:1039D0000721784800F073FE03461A46764B1A809A
:1039E000754B1B88DAB2734BDA70734B1B881B0A5A
:1039F0009BB2DAB26F4B1A7107216E4813F0B8F818
:103A000000F0C9BC6B4B24221A706A4B23225A70F7
:103A1000684B07229A70674B0022DA70654B0022D0
:103A20001A71644B3B225A71624B23229A7107210F
:103A3000604800F044FE03461A465F4B1A805E4B16
:103A40001B88DAB25B4BDA705B4B1B881B0A9BB29C
:103A5000DAB2584B1A710721564813F089F800F072
:103A60009ABCB7F8B6309BB21A46544B1344544A2A
:103A70001046194644231A4613F0E4FE504B5B7877
:103A80001E2B2ED04B4B24221A704A4B2C225A70DC
:103A9000484B07229A70474B0022DA70454B0022B0
:103AA0001A71444B3B225A71424B23229A710721CF
:103AB000404800F004FE03461A463F4B1A803E4B36
:103AC0001B88DAB23B4BDA703B4B1B881B0A9BB25C
:103AD000DAB2384B1A710721364813F049F800F072
:103AE0005ABC374BB3F803309BB2B3F57A7F2ED371
:103AF000304B24221A702F4B28225A702D4B07224C
:103B00009A702C4B0022DA702A4B00221A71294B32
:103B10003B225A71274B23229A710721254800F036
:103B2000CEFD03461A46244B1A80234B1B88DAB27B
:103B3000204BDA70204B1B881B0A9BB2DAB21D4B5C
:103B40001A7107211B4813F013F800F024BC1C4B1A
:103B50009B78442B36D0174B24221A70154B2B22FE
:103B60005A70144B07229A70124B0022DA70114BD4
:103B700000221A710F4B3B225A710E4B23229A716D
:103B800007210C4800F09BFD03461A460A4B1A8099
:103B9000094B1B88DAB2074BDA70074B1B881B0AEC
:103BA0009BB2DAB2034B1A710721024812F0E0FF10
:103BB000F1E300BFD0060020C80600204C0F002013
:103BC000880700209F4B1B78242B2DD09E4B24224E
:103BD0001A709D4B29225A709B4B07229A709A4B60
:103BE0000022DA70984B00221A71974B3B225A71CF
:103BF000954B23229A710721934800F060FD0346FC
:103C00001A46924B1A80914B1B88DAB28E4BDA70AF
:103C10008E4B1B881B0A9BB2DAB28B4B1A710721A1
:103C2000894812F0A5FFB6E3864BB3F8423042F262
:103C30003B3293422DD0844B24221A70824B2A228D
:103C40005A70814B07229A707F4B0022DA707E4BAC
:103C500000221A717C4B3B225A717B4B23229A71B2
:103C60000721794800F02BFD03461A46774B1A804E
:103C7000764B1B88DAB2744BDA70744B1B881B0AC4
:103C80009BB2DAB2704B1A7107216F4812F070FFC5
:103C900081E36C4BB3F840206D4B1A80694B0022D6
:103CA000A3F84020674B9B781946664800F007FD53
:103CB00003461A46654B1A80654B1A88634B1B886E
:103CC0009A4240F0F7805F4BB3F803309BB2DB02BF
:103CD0001A46604B1A605B4A07F1100311464422F2
:103CE000184613F0AFFD5B4B1B684421184600F0EB
:103CF000ABFD0346002B00F0AF800023A7F8F230A5
:103D000014E0B7F8F230F03307F11002134413F85F
:103D1000F00CB7F8F2204F4B1B681344194600F023
:103D20002DFEB7F8F2300133A7F8F230B7F8F230D1
:103D3000432BE6D90023A7F8F03017E0B7F8F020BE
:103D4000444B1B681344B7F8F040184600F05CFE83
:103D500003461A4604F1F00307F110010B4403F87F
:103D6000AC2CB7F8F0300133A7F8F030B7F8F030EA
:103D7000432BE3D907F1540107F1100344221846FD
:103D800013F024FD0346002B2DD12F4B24221A7053
:103D90002D4B19225A702C4B07229A702A4B002265
:103DA000DA70294B00221A71274B3B225A71264B9D
:103DB00023229A710721244800F081FC03461A4609
:103DC000224B1A80214B1B88DAB21F4BDA701F4B33
:103DD0001B881B0A9BB2DAB21B4B1A7107211A48C7
:103DE00012F0C6FED7E2184B24221A70164B192285
:103DF0005A70154B07229A70134B0122DA70124B3E
:103E000000221A71104B3B225A710F4B23229A71D8
:103E100007210D4800F053FC03461A460B4B1A804D
:103E20000A4B1B88DAB2084BDA70084B1B881B0A56
:103E30009BB2DAB2044B1A710721034812F098FEC4
:103E4000A9E200BF88070020D0060020C806002095
:103E5000CE0600201C070020AE4B24221A70AD4B6A
:103E600022225A70AB4B07229A70AA4B0022DA70BA
:103E7000A84B00221A71A74B3B225A71A54B232253
:103E80009A710721A34800F01AFC03461A46A24B78
:103E90001A80A14B1B88DAB29E4BDA709E4B1B88AE
:103EA0001B0A9BB2DAB29B4B1A710721994812F098
:103EB0005FFE70E2974B24221A70964B23225A70B1
:103EC000944B07229A70934B0022DA70914B002298
:103ED0001A71904B3B225A718E4B23229A71072103
:103EE0008C4800F0ECFB03461A468B4B1A808A4B39
:103EF0001B88DAB2874BDA70874B1B881B0A9BB290
:103F0000DAB2844B1A710721824812F031FE42E284
:103F10000023A7F8E2304FF46063A7F8E0300023F5
:103F2000A7F8DE300023A7F8DC30B7F8B6309BB234
:103F30001A467A4B1A447A4B10685168926807C344
:103F4000774B1A89774B1A80754B00221A81744B74
:103F50005B881946724800F0B2FB03461A466E4B66
:103F60001A80704B1A886C4B1B889A4240F0E28092
:103F70004FF4FA110020FDF793FC0346A7F8E23056
:103F8000142000F083FD01F0B3FEC7F8D80009E06B
:103F900001F0AEFE0246D7F8D830D31A41F288328B
:103FA000934207D800F0B8FD034603F00103002B4D
:103FB000EED100E000BFB7F8E230DBB24FF4A00171
:103FC000184600F0DBFCB7F8E2301B0A9BB2DBB20C
:103FD0005549184600F0D2FCB7F8E030DBB253493F
:103FE000184600F0CBFCB7F8E0301B0A9BB2DBB2FE
:103FF0004F49184600F0C2FC4FF4A00000F004FD49
:104000000346A7F8DC30484800F0FEFC03461B02DC
:1040100003F47F431AB2B7F9DC3013431BB2A7F89D
:10402000DC30424800F0F0FC0346A7F8DE304048A0
:1040300000F0EAFC03461B0203F47F431AB2B7F90F
:10404000DE3013431BB2A7F8DE30B7F8E220B7F832
:10405000DC309A422FD1B7F8E020B7F8DE309A4230
:1040600029D12F4B24221A702D4B27225A702C4B0A
:104070000C225A802A4AB7F8E2309380284B00225B
:10408000DA80274B00221A81254B42F23B325A81BB
:10409000234B5B881946224800F011FB03461A4661
:1040A0001D4B1A801C4B1A881D4B1A810C211C4871
:1040B00012F05EFD6FE1174B24221A70154B21227E
:1040C0005A70144B07229A70124B0022DA70114B6F
:1040D00000221A710F4B3B225A710E4B23229A7108
:1040E00007210C4800F0EBFA03461A460A4B1A80E7
:1040F000094B1B88DAB2074BDA70074B1B881B0A87
:104100009BB2DAB2034B1A710721024812F030FD5C
:1041100041E100BFD0060020C80600204C0F00205F
:104120001C080020CE0600200100500002005000B4
:1041300003005000994B24221A70984B23225A7086
:10414000964B07229A70954B0022DA70934B00220F
:104150001A71924B3B225A71904B23229A7107217C
:104160008E4800F0ACFA03461A468D4B1A808C4BF1
:104170001B88DAB2894BDA70894B1B881B0A9BB209
:10418000DAB2864B1A710721844812F0F1FC02E181
:10419000B7F8B6309BB21A46824B1A44824B10686D
:1041A000516803C312891A807F4BDA887F4B1A80CB
:1041B0007D4B0022DA807C4B5B8819467A4800F000
:1041C0007EFA03461A46764B1A80784B1A88744B4F
:1041D0001B889A4240F08280734B9B88DB021A4610
:1041E000734B1A60724B1B684421184600F02CFB7D
:1041F0000346002B42D10023A7F8EE3017E0B7F8B2
:10420000EE206B4B1B681344B7F8EE40184600F0E5
:10421000FBFB03461A4604F1F00307F110010B44BF
:1042200003F8AC2CB7F8EE300133A7F8EE30B7F84E
:10423000EE30432BE3D95F4B184607F15403442279
:10424000194613F0FFFA5B4B25225A70594B002296
:10425000A3F84020574B9B781946564800F02FFA98
:1042600003461A464E4B1A804D4B1A88514BA3F801
:10427000402044214F4812F07BFC8CE04422002176
:104280004C4813F0B3FA4B4B24221A70494B2522A9
:104290005A70484B002262F01602DA70002242F097
:1042A00003021A71434B44229A70424B42F23B3252
:1042B000A3F842203F4B9B7819463E4800F0FFF997
:1042C00003461A46364B1A80354B1A88394BA3F8E9
:1042D00040204421374812F04BFC5CE02F4B242255
:1042E0001A702E4B23225A702C4B07229A702B4B9C
:1042F0000022DA70294B00221A71284B3B225A7196
:10430000264B23229A710721244800F0D8F903464E
:104310001A46234B1A80224B1B88DAB21F4BDA70E5
:104320001F4B1B881B0A9BB2DAB21C4B1A71072168
:104330001A4812F01DFC2EE0184B24221A70174B5D
:1043400007225A70154B07229A70144B0022DA701C
:10435000124B00221A71114B3B225A710F4B232230
:104360009A7107210D4800F0AAF903461A460C4B32
:104370001A800B4B1B88DAB2084BDA70084B1B888B
:104380001B0A9BB2DAB2054B1A710721034812F0DF
:10439000EFFB00E000BFFEF7E8BB00BFD006002047
:1043A000C80600204C0F002010080020CE06002078
:1043B0001C070020CC07002080B596B000AF07F1A5
:1043C000140344220021184613F010FA3B46002241
:1043D0001A605A609A60DA601A614FF4007006F051
:1043E00099FC0346002B01D000F04EFA29237B6193
:1043F0004FF48033BB610123BB630123BB62022303
:10440000FB6303233B6401237B641423BB6402230B
:10441000FB6402233B6502237B6507F11403184606
:1044200006F0ACFD0346002B01D000F02DFA0F235F
:104430003B6003237B600023BB600023FB60002301
:104440003B613B460421184607F0E8FA0346002B7F
:1044500001D000F019FA00BF5837BD4680BD0000FA
:1044600080B586B000AF254B7B617B691B683B61E3
:104470007B6904331B68FB60FB68BB6000F07AF863
:104480001F4B00221A601E4B00225A601C4B002258
:104490009A601C4B5B681B4A43F020635360194BC6
:1044A000184A9B6A9362174B164ADB6AD362154B14
:1044B000144A1B6B1363134B00225A63114B0022E7
:1044C0009A63104A7B6993603B693B603B6883F366
:1044D000088800BF00237B607B6883F3148800BFDB
:1044E000BFF34F8F00BFBFF36F8F00BF62B600BF37
:1044F000BB68984700BF1837BD4680BD0000020862
:1045000010E000E000ED00E080B487B000AF78601C
:104510007B681B687B617B6804331B683B613B697C
:1045200023F00103FB607B69B3F1005F03D37B6978
:104530000E4A934201D9002311E03B6903F00103C5
:10454000002B01D100230AE0FA687B689A4203D36A
:10455000FB68074A934201D9002300E00123184673
:104560001C37BD465DF8047B704700BF0000052086
:10457000FFFF070880B582B000AF72B600BF314BB5
:1045800000221A602F4B00225A602E4B00229A60A4
:104590002D4810F0B0FD2C4810F01DFD2B4809F0FF
:1045A000F3FF00212A480AF0EBFB042129480AF016
:1045B000E7FB0C2128480AF0E3FB002127480AF01A
:1045C000DFFB27480CF02CFF26480CF029FF26487B
:1045D00008F084FE254808F081FE254808F07EFE9C
:1045E000244802F079F9194809F06CFE18480AF0DD
:1045F00055F918480AF052F917480AF04FF91748C8
:104600000AF04CF900237B6010E01B4A7B682033E2
:104610004FF0FF3142F82310174A7B6860334FF0A8
:10462000FF3142F823107B6801337B607B68072BE6
:10463000EBD906F001FC01F0CFFA00BF0837BD4608
:1046400080BD00BF10E000E07C0C0020080B0020C3
:10465000D8090020240A0020700A0020BC0A00208B
:10466000640B0020EC0B0020AC0800201009002097
:10467000740900204406002000E100E080B586B007
:1046800000AFF860B9601346FB8000237B610DE04A
:10469000FB685A1CFA601A78FB881146184600F02D
:1046A0001EF80346FB807B6901337B617A69BB6836
:1046B0009A42EDD3FB8818461837BD4680BD80B5B9
:1046C00082B000AF786039604FF6FF723968786861
:1046D000FFF7D4FF034618460837BD4680BD80B4B7
:1046E00085B000AF03460A46FB8013467B717B7999
:1046F0001BB21B021AB2B7F9063053401BB2FB8043
:104700000023FB7314E0B7F90630002B0ADAB7F97F
:1047100006305B001BB283F4815383F001031BB2AC
:10472000FB8002E0FB885B00FB80FB7B0133FB73BB
:10473000FB7B072BE7D9FB8818461437BD465DF88D
:10474000047B704780B500AF002102480AF068F989
:1047500000BF80BDBC0A002080B500AF0021024828
:104760000AF00EFB00BF80BDBC0A002080B500AF80
:1047700020210E4804F0DAFF0346002B0AD10C4B2F
:1047800037225A634FF0804337229A63094B37220E
:104790001A6409E0064B5A225A634FF080435A22AA
:1047A0009A63044B5A221A6400BF80BD000C004873
:1047B000002C01400004004080B582B000AF78605A
:1047C000094B1B780133DAB2074B1A70064B1B7882
:1047D000052B05D1054B08221A70054809F0D4FEB7
:1047E00000BF0837BD4680BD280800209400002087
:1047F000080B002080B582B000AF78600E4B1B68BC
:1048000008221A620D4B1B6808221A627B680A4A4A
:10481000934204D105220A4907480CF0F9FE7B684F
:10482000064A934204D10522064904480CF0F0FEE2
:1048300000BF0837BD4680BD640B0020EC0B002094
:10484000540B00205C0B002080B584B000AF786072
:1048500039600023FB600DE07A68FB68134418465A
:1048600000F0D2F80346FF2B01D0002307E0FB68DD
:104870000133FB60FA683B689A42EDD30123184686
:104880001037BD4680BD000080B500AF72B600BFD6
:10489000FFF762FF074B00225A634FF0804300226C
:1048A0009A63054B00221A640F220F210F20FCF798
:1048B000F3F9F9E7002C01400004004080B483B014
:1048C00000AF7860396000BF0C37BD465DF8047BEF
:1048D0007047000080B582B000AF00224FF4004165
:1048E0004FF0904004F042FF114B05221A704FF038
:1048F000FF3301220E490F4808F034FD4FF0FF331B
:1049000001220D490B4808F0B5FE0B4B1B78FB71DB
:1049100001224FF400414FF0904004F027FFFB7953
:1049200003F00103DBB218460837BD4680BD00BF67
:104930002C080020740900206C08002080B500AF0E
:1049400000224FF400414FF0904004F00FFF094B5C
:1049500006221A704FF0FF3301220649064808F07C
:1049600001FD01224FF400414FF0904004F0FEFEA3
:1049700000BF80BD2C0800207409002080B582B0E3
:1049800000AF03463960FB71FFF7D8FF00224FF4F8
:1049900000414FF0904004F0E9FE194B12221A70CA
:1049A0003B681B0EDAB2164B5A703B681B0CDAB22E
:1049B000134B9A703B681B0ADAB2114BDA703B68F2
:1049C000DAB20F4B1A710E4AFB7953714FF0FF3375
:1049D00006220B490B4808F0C5FC01224FF40041A8
:1049E0004FF0904004F0C2FE00BFFFF773FF034694
:1049F000002BFAD100BF00BF0837BD4680BD00BF05
:104A00002C0800207409002080B582B000AF7860C7
:104A100000224FF400414FF0904004F0A7FE184BE5
:104A200013221A707B681B0EDAB2154B5A707B6822
:104A30001B0CDAB2124B9A707B681B0ADAB2104B6D
:104A4000DA707B68DAB20E4B1A714FF0FF33052231
:104A50000B490C4808F086FC4FF0FF3301220A494D
:104A6000084808F007FE01224FF400414FF0904043
:104A700004F07CFE044B1B7818460837BD4680BD09
:104A80002C080020740900206C08002080B584B038
:104A900000AF0346FB710023FB60FB799B04FB60C6
:104AA000FFF74CFF1A4BDC221A70FB681B0EDAB2C0
:104AB000174B5A70FB681B0CDAB2154B9A70FB68E7
:104AC0001B0ADAB2124BDA70FB68DAB2104B1A71B9
:104AD00000224FF400414FF0904004F047FE4FF0A9
:104AE000FF3305220A490B4808F03CFC01224FF431
:104AF00000414FF0904004F039FE00BFFFF7EAFE9E
:104B00000346002BFAD100BF00BF1037BD4680BD61
:104B10002C0800207409002080B500AFFFF70EFFBD
:104B2000114B05221A7000224FF400414FF09040C3
:104B300004F01CFE4FF0FF3301220B490B4808F034
:104B400011FC4FF0FF3301220949084808F092FD9B
:104B500001224FF400414FF0904004F007FE044B57
:104B60001B78184680BD00BF2C0800207409002067
:104B70006C08002080B500AF1B4B1C4A1A601A4B12
:104B80004FF482725A60184B00229A60164B4FF411
:104B90007062DA60144B00221A61134B00225A61D2
:104BA000114B4FF400729A610F4B0022DA610E4BE9
:104BB00000221A620C4B00225A620B4B00229A62AE
:104BC000094B0722DA62084B00221A63064B0022C7
:104BD0005A63054808F094F90346002B01D0FFF70B
:104BE00053FE00BF80BD00BFAC0800200030014074
:104BF00080B500AF1B4B1C4A1A601A4B4FF48272EF
:104C00005A60184B00229A60164B4FF47062DA60BB
:104C1000144B00221A61134B00225A61114B4FF4BE
:104C200080229A610F4B1022DA610E4B00221A6229
:104C30000C4B00225A620B4B00229A62094B07224E
:104C4000DA62084B00221A63064B08225A630548B1
:104C500008F056F90346002B01D0FFF715FE00BF00
:104C600080BD00BF100900200038004080B500AFB3
:104C70001B4B1C4A1A601A4B4FF482725A60184B35
:104C800000229A60164B4FF4E062DA60144B002267
:104C90001A61134B00225A61114B4FF400729A6152
:104CA0000F4B0022DA610E4B00221A620C4B0022DD
:104CB0005A620B4B00229A62094B0722DA62084BB8
:104CC00000221A63064B00225A63054808F018F9BF
:104CD0000346002B01D0FFF7D7FD00BF80BD00BF0A
:104CE00074090020003C004080B58EB000AF7860B1
:104CF00007F1240300221A605A609A60DA601A6190
:104D00007B681B68464A934229D1464B1B6E454A35
:104D100043F480531366434B1B6E03F480533B6292
:104D20003B6A404BDB6C3F4A43F00103D3643D4B8D
:104D3000DB6C03F00103FB61FB69E0237B62022370
:104D4000BB620023FB6203233B6305237B6307F104
:104D5000240319464FF0904004F03EF95CE07B6874
:104D60001B68314A934229D12E4B9B6D2D4A43F447
:104D7000804393652B4B9B6D03F48043BB61BB6900
:104D8000284BDB6C274A43F00203D364254BDB6CD2
:104D900003F002037B617B694FF470437B62022363
:104DA000BB620023FB6203233B6305237B6307F1A4
:104DB000240319461D4804F00FF92DE07B681B6899
:104DC0001B4A934228D1174B9B6D164A43F400436C
:104DD0009365144B9B6D03F400433B613B69114B9E
:104DE000DB6C104A43F00403D3640E4BDB6C03F01E
:104DF0000403FB60FB684FF4E0537B620223BB6259
:104E00000023FB6203233B6306237B6307F1240338
:104E10001946084804F0E0F800BF3837BD4680BDA9
:104E200000300140001002400038004000040048FB
:104E3000003C00400008004880B582B000AF7860B8
:104E40007B681B68194A93420BD1194B1B6E184A99
:104E500023F480531366E0214FF0904004F03AFBB6
:104E600020E07B681B68134A93420BD1104B9B6D6B
:104E70000F4A23F4804393654FF470410E4804F0C9
:104E800029FB0FE07B681B680C4A93420AD1084B50
:104E90009B6D074A23F4004393654FF4E0510848A3
:104EA00004F018FB00BF0837BD4680BD003001404C
:104EB000001002400038004000040048003C004060
:104EC0000008004880B483B000AF0F4B1B6E0E4A41
:104ED00043F0010313660C4B1B6E03F001037B6070
:104EE0007B68094B9B6D084A43F080539365064BE2
:104EF0009B6D03F080533B603B6800BF0C37BD46A1
:104F00005DF8047B704700BF0010024080B400AF22
:104F100000BFFDE780B400AF00BFFDE780B400AF85
:104F200000BFFDE780B400AF00BFFDE780B400AF75
:104F300000BFFDE780B400AF00BFBD465DF8047B55
:104F4000704780B400AF00BFBD465DF8047B70477A
:104F500080B400AF00BFBD465DF8047B704780B5EC
:104F600000AF00F0B1FE00BF80BD000080B500AF13
:104F700002480CF099FB00BF80BD00BF640B00200D
:104F800080B500AF02480CF08FFB00BF80BD00BFB2
:104F9000EC0B002080B500AF02480AF025F800BFF6
:104FA00080BD00BF080B002080B500AF024804F0B0
:104FB0004AFE00BF80BD00BF5829002080B400AF6A
:104FC000064BD3F88830054A43F47003C2F88830A2
:104FD00000BFBD465DF8047B704700BF00ED00E0F8
:104FE00080B59EB000AF07F1680300221A605A60D6
:104FF0009A60DA6007F1540300221A605A609A60DE
:10500000DA601A6107F1480300221A605A609A6058
:1050100007F12C0300221A605A609A60DA601A6164
:105020005A619A613B462C220021184612F0DEFBA1
:105030004B4B4C4A1A604A4B41F63F725A60484B00
:1050400000229A60464B6322DA60454B00221A61C7
:10505000434B00225A61424B00229A61404809F0BA
:1050600027F80346002B01D0FFF70EFC4FF48053C6
:10507000BB6607F16803194639480AF00BFB034683
:10508000002B01D0FFF700FC354809F0FDFA03467C
:10509000002B01D0FFF7F8FB00237B650023BB65E5
:1050A00007F1540319462E480AF03EFE0346002B32
:1050B00001D0FFF7E9FB0023BB640023FB6400235E
:1050C0003B6507F14803194625480BF055FE03469A
:1050D000002B01D0FFF7D8FB6023FB6200233B636A
:1050E00000237B630023BB630023FB6300233B643B
:1050F00000237B6407F12C030022194618480AF0AC
:105100007BF80346002B01D0FFF7BEFB00233B607A
:1051100000237B600023BB600023FB6000233B6116
:105120004FF400537B610023BB610023FB614FF010
:1051300000733B6200237B620023BB623B4619463F
:1051400007480BF06FFF0346002B01D0FFF79CFBD5
:10515000034800F04BFA00BF7837BD4680BD00BF62
:10516000D8090020002C014080B58EB000AF07F1B7
:10517000280300221A605A609A60DA6007F11C0363
:1051800000221A605A609A603B4600221A605A60F8
:105190009A60DA601A615A619A612D4B4FF0804231
:1051A0001A602B4B41F63F725A60294B00229A60DD
:1051B000274B6322DA60264B00221A61244B00221F
:1051C0009A61234808F074FF0346002B01D0FFF7D3
:1051D0005BFB4FF48053BB6207F1280319461C4860
:1051E0000AF058FA0346002B01D0FFF74DFB184890
:1051F00009F04AFA0346002B01D0FFF745FB0023D4
:10520000FB6100237B6207F11C03194610480BF079
:10521000B3FD0346002B01D0FFF736FB60233B6054
:1052200000237B600023BB6000233B613B460422DC
:105230001946074809F0E0FF0346002B01D0FFF7AD
:1052400023FB034800F0D2F900BF3837BD4680BDCC
:10525000240A002080B58EB000AF07F12803002299
:105260001A605A609A60DA6007F11C0300221A6023
:105270005A609A603B4600221A605A609A60DA606F
:105280001A615A619A612D4B2D4A1A602B4B41F6D7
:105290003F725A60294B00229A60284B6322DA60E1
:1052A000264B00221A61254B00229A61234808F000
:1052B000FFFE0346002B01D0FFF7E6FA4FF48053C0
:1052C000BB6207F1280319461C480AF0E3F90346BC
:1052D000002B01D0FFF7D8FA184809F0D5F903469A
:1052E000002B01D0FFF7D0FA0023FB6100237B6283
:1052F00007F11C03194611480BF03EFD0346002B35
:1053000001D0FFF7C1FA60233B6000237B600023DC
:10531000BB6000233B613B460C221946074809F05D
:105320006BFF0346002B01D0FFF7AEFA034800F0F5
:105330005DF900BF3837BD4680BD00BF700A002050
:105340000004004080B58EB000AF07F128030022B2
:105350001A605A609A60DA6007F11C0300221A6032
:105360005A609A603B4600221A605A609A60DA607E
:105370001A615A619A612D4B2D4A1A602B4B41F6E6
:105380003F725A60294B00229A60284B40F22B1240
:10539000DA60264B00221A61244B80229A6123484E
:1053A00008F086FE0346002B01D0FFF76DFA4FF49C
:1053B0008053BB6207F1280319461C480AF06AF9BA
:1053C0000346002B01D0FFF75FFA184809F05CF99B
:1053D0000346002B01D0FFF757FA0023FB6100239F
:1053E0007B6207F11C03194610480BF0C5FC03460D
:1053F000002B01D0FFF748FA60233B6000237B605D
:105400000023BB6000233B613B460022194607484E
:1054100009F0F2FE0346002B01D0FFF735FA0348EE
:1054200000F0E4F800BF3837BD4680BDBC0A00205C
:105430000008004080B58CB000AF07F120030022C7
:105440001A605A609A60DA6007F10C0300221A6051
:105450005A609A60DA601A613B4600221A605A600C
:105460009A60254B254A1A60234B40F21F325A603E
:10547000214B00229A60204B214ADA601E4B002209
:105480001A611D4B00229A611B4808F011FE034669
:10549000002B01D0FFF7F8F94FF480533B6207F17E
:1054A0002003194614480AF0F5F80346002B01D0F2
:1054B000FFF7EAF90023FB6000233B6107F10C03CF
:1054C00019460D480AF030FC0346002B01D0FFF7C7
:1054D000DBF900233B600023BB603B4619460648CE
:1054E0000BF04AFC0346002B01D0FFF7CDF900BFBB
:1054F0003037BD4680BD00BF080B0020000C0040C7
:10550000A086010080B588B000AF78607B681B681A
:10551000314A93420CD1314B1B6E304A43F4006345
:1055200013662E4B1B6E03F40063FB61FB694EE0B8
:105530007B681B68B3F1804F0CD1284B9B6D274AC9
:1055400043F001039365254B9B6D03F00103BB61A1
:10555000BB693CE07B681B68214A93420CD11F4B1E
:105560009B6D1E4A43F0020393651C4B9B6D03F039
:1055700002037B617B692AE07B681B68194A9342BE
:105580000CD1164B9B6D154A43F004039365134BE6
:105590009B6D03F004033B613B6918E07B681B686B
:1055A000114A934213D10D4B9B6D0C4A43F00803F3
:1055B00093650A4B9B6D03F00803FB60FB680022B8
:1055C0000021322003F08AF8322003F0B3F800BF44
:1055D0002037BD4680BD00BF002C014000100240B6
:1055E0000004004000080040000C004080B58CB072
:1055F00000AF786007F11C0300221A605A609A60BD
:10560000DA601A617B681B68464A93421ED1464B9A
:10561000DB6C454A43F00103D364434BDB6C03F07E
:105620000103BB61BB694FF48073FB6102233B62E2
:1056300000237B620023BB620123FB6207F11C0392
:1056400019464FF0904003F0C7FC66E07B681B688A
:10565000B3F1804F1CD1344BDB6C334A43F002036F
:10566000D364314BDB6C03F002037B617B6908235D
:10567000FB6102233B6200237B620023BB620123A8
:10568000FB6207F11C031946284803F0A5FC44E01F
:105690007B681B68264A93421DD1234BDB6C224A50
:1056A00043F00403D364204BDB6C03F004033B6141
:1056B0003B694FF40073FB6102233B6200237B6272
:1056C0000023BB620223FB6207F11C031946194841
:1056D00003F082FC21E07B681B68174A93421CD1CF
:1056E000114BDB6C104A43F00803D3640E4BDB6CA8
:1056F00003F00803FB60FB684FF48053FB61022357
:105700003B6200237B620023BB620223FB6207F142
:105710001C031946094803F05FFC00BF3037BD4643
:1057200080BD00BF002C0140001002400004004872
:10573000000400400008004800080040000C004839
:1057400080B582B000AF78607B681B681F4A9342C7
:1057500006D11F4B1B6E1E4A23F40063136631E013
:105760007B681B68B3F1804F06D1194B9B6D184ABB
:1057700023F00103936525E07B681B68154A93427B
:1057800006D1134B9B6D124A23F00203936519E077
:105790007B681B68104A934206D10D4B9B6D0C4AE7
:1057A00023F0040393650DE07B681B680B4A93426A
:1057B00008D1074B9B6D064A23F0080393653220FE
:1057C00002F0D0FF00BF0837BD4680BD002C01406D
:1057D000001002400004004000080040000C00409F
:1057E00080B500AF144B154A1A60134B4FF4614259
:1057F0005A60114B00229A600F4B0022DA600E4B68
:1058000000221A610C4B0C225A610B4B00229A6148
:10581000094B0022DA61084B00221A62064B002273
:105820005A6205480BF054FD0346002B01D0FFF7E8
:105830002BF800BF80BD00BF640B00200038014082
:1058400080B500AF144B154A1A60134B4FF46142F8
:105850005A60114B00229A600F4B0022DA600E4B07
:1058600000221A610C4B0C225A610B4B00229A61E8
:10587000094B0022DA61084B00221A62064B002213
:105880005A6205480BF024FD0346002B01D0FEF7B9
:10589000FBFF00BF80BD00BFEC0B002000440040B8
:1058A00080B5AEB000AF786007F1A40300221A60A3
:1058B0005A609A60DA601A6107F118038C2200219D
:1058C000184611F093FF7B681B684B4A934246D100
:1058D0000123BB6100233B6507F11803184606F05E
:1058E00061FB0346002B01D0FEF7CEFF434B1B6E3E
:1058F000424A43F480431366404B1B6E03F48043DB
:105900007B617B693D4BDB6C3C4A43F04003D364D5
:105910003A4BDB6C03F040033B613B6905F07CFADA
:105920004FF4C063C7F8A4300223C7F8A83000239F
:10593000C7F8AC300323C7F8B0300723C7F8B4303A
:1059400007F1A40319462E4803F046FB002200216C
:10595000252002F0C3FE252002F0ECFE48E07B6823
:105960001B68284A934243D10223BB6100237B6515
:1059700007F11803184606F015FB0346002B01D06B
:10598000FEF782FF1D4B9B6D1C4A43F40033936569
:105990001A4B9B6D03F40033FB60FB68174BDB6C09
:1059A000164A43F00103D364144BDB6C03F001038C
:1059B000BB60BB680C23C7F8A4300223C7F8A8302B
:1059C0000023C7F8AC300323C7F8B0300723C7F86B
:1059D000B43007F1A40319464FF0904003F0FCFAED
:1059E00000220021262002F079FE262002F0A2FEED
:1059F00000BFB837BD4680BD0038014000100240EE
:105A0000001800480044004080B582B000AF7860C4
:105A10007B681B68144A93420ED1144B1B6E134AC9
:105A200023F4804313664FF4C061114803F052FD24
:105A3000252002F097FE12E07B681B680D4A934216
:105A40000DD10A4B9B6D094A23F4003393650C2159
:105A50004FF0904003F03EFD262002F083FE00BF91
:105A60000837BD4680BD00BF00380140001002402D
:105A7000001800480044004080B582B000AF0346E3
:105A8000FB71FB79012B3AD101224FF400612A48C6
:105A900003F06CFE01224FF48051274803F066FEAC
:105AA000012202214FF0904003F060FE012201210B
:105AB0004FF0904003F05AFE012280211F4803F06E
:105AC00055FE4FF0FF3305221D491E480BF016FD11
:105AD00000228021194803F049FE012208211A48BA
